:100000000C942A001895000018950000189500001F
:10001000189500001895000018950000189500002C
:10002000189500001895000018950000189500001C
:10003000189500001895000018950000189500000C
:1000400018950000189500001895000018950000FC
:10005000189500008FE58DBFC8E3E0E24E2E84E0E6
:100060008EBFD4E0F4E05F2EA89584B7082E877F7A
:1000700084BF88E1992781BD91BDEEEFF3E0A0E652
:10008000B0E088278D933197E9F70E94D801662464
:1000900083E886B980EC87B98FEF81BB80E087BBAE
:1000A000379A8AE0809363008EE18093620007B103
:1000B000007E026007B90E946702A0E6B0E08D935F
:1000C0009C93A0E6B0E00D911C9144E050E00E94AA
:1000D0009301A0E6B0E04D935C93B09B0C94750047
:1000E000A2E6B0E08C918F5F8C93B19B0C947D0065
:1000F00080916200815080936200B29B0C948500D5
:10010000A3E6B0E08C918F5F8C93B39B0C948D0031
:1001100080916300815080936300A3E6B0E04D912D
:100120005527A0E6B0E00D911C910417150718F0B3
:1001300011F00C949D000C949E009198A2E6B0E002
:100140004D915527A0E6B0E00D911C9104171507BD
:1001500010F00C94AC0090980E94C0018CE00E94BA
:1001600026020E94BC01EEEAF5E00E94B501E0E63D
:10017000F0E0A8E0B4E00E9482020E94AD01E4EB4E
:10018000F5E00E94B501E2E6F0E0A8E0B4E00E94EC
:1001900092020E94AD018FEB12E00E94CF01EAEBC8
:1001A000F5E00E94B501E2ECF5E00E94B501E3E65E
:1001B000F0E0A8E0B4E00E9492020E94AD01A3E644
:1001C000B0E04D915527A0E6B0E00D911C910417C9
:1001D000150718F011F00C94F1000E9404010C9422
:1001E000FC00A2E6B0E04D9155270417150710F466
:1001F0000C94FC000E943A018AEF90E00E945302A6
:100200000C945700F894FFCF0E94C0018CE00E942C
:1002100026020E94BC01EEEAF5E00E94B501E0E68C
:10022000F0E0A8E0B4E00E9482020E94AD01E4EB9D
:10023000F5E00E94B501E2E6F0E0A8E0B4E00E943B
:1002400092020E94AD018FEB12E00E94CF01E8EC18
:10025000F5E00E94B501ECECF5E00E94B501E3E6A3
:10026000F0E0A8E0B4E00E9492020E94AD019098F4
:10027000919A08950E94C0018CE00E9426020E947B
:10028000BC01EEEAF5E00E94B501E0E6F0E0A8E08E
:10029000B4E00E9482020E94AD01E4EBF5E00E940E
:1002A000B501E2E6F0E0A8E0B4E00E9492020E940C
:1002B000AD018FEB12E00E94CF01E4EDF5E00E946A
:1002C000B501ECECF5E00E94B501E3E6F0E0A8E052
:1002D000B4E00E9492020E94AD01909A9198089514
:1002E00000FC10D0089503D01ED001F8F9CF0024EF
:1002F000E89457FF02C009D0689400F80BD010F8BA
:100300000124089502D009D00895509540954F5F7B
:100310005F4F0895E89417FF0895009510950F5FBB
:100320001F4F68940895352F242FE894452B11F41E
:1003300068940895512F402F0027112780E1440F22
:10034000551F001F111F021B130B416018F4020FF1
:10035000131F4E7F8A9599F70895A8E0B4E08D9118
:10036000882311F06DD0FBCF08950E947002802D7C
:1003700011F066D0FACF089582E068D016D012C08E
:1003800081E064D012D080E861C08FE7213039F07D
:100390008FEB223021F08FE8233009F08FEC810FB2
:1003A0000C94260280E852D0089583E099277BC000
:1003B0008AEF90E00E945302A79AA69AA59AA49A5F
:1003C000A39AA29AAA9885E090E00E945302AB9863
:1003D000AF98AE98AD9AAC9AAB9AEF93FF93E5E1E4
:1003E000F0E00E944702FF91EF91AB9859D0AB9A91
:1003F000EF93FF93E5E1F0E00E944702FF91EF9158
:10040000AB984ED0AB9AEF93FF93E5E1F0E00E94FA
:100410004702FF91EF91AB9843D0AC98AB9AEF9322
:10042000FF93E5E1F0E00E944702FF91EF91AB9866
:1004300037D088E20BD08EE009D086E007D008954F
:10044000AA9A829505D004D02BD00895AA98F9CF06
:10045000859510F4AC9A01C0AC98859510F4AD9ACE
:1004600001C0AD98859510F4AE9A01C0AE988595FF
:1004700010F4AF9A01C0AF98AB9AEF93FF93E5E108
:10048000F0E00E944702FF91EF91AB9808953197F9
:10049000F1F70895689462F80895E89462F8089571
:1004A00081E090E000C0EF93FF93EE27E82BE92B6B
:1004B00031F0EAEFF0E03197F1F70197D1F7FF91D2
:1004C000EF91089501911191219130810895369A0B
:1004D0003699FECF369A3699FECF84B195B10895FC
:1004E000C895319600200895000F111F221F331F59
:1004F000089500951095209530950F5F1F4F2F4F51
:100500003F4F0895019110810FC00E9462020EC0FA
:100510000E94620210C00191108117FF05C03FEFD9
:100520002FEF04C0008111272227332737FF03C094
:10053000E0DF8DE28D93CF92DF92EF92AA24BB246D
:10054000CC24DD24EE2440E2EAE0FF2755E093E3EB
:100550008081890F87FD9F7083FD907F891B819328
:100560005A95A9F7C1DFAA1CBB1CCC1CDD1CEE1CD4
:100570004A9551F7E894EFE0FF2782910BD0EB30DA
:10058000E0F71EF068948A2D09D04D93EF90DF902C
:10059000CF900895982F829501D0892F8F70805D1C
:1005A00026F0803309F4089568948D930895544596
:1005B0004D503A00202020483A004E4F524D414CB9
:1005C00000002020204C3A004C4F570020202020D3
:0A05D000204C3A004849474800005B
:00000001FF
